{
  "contractName": "CourseMarketplace",
  "abi": [
    {
      "inputs": [],
      "name": "CourseOwner",
      "type": "error"
    },
    {
      "inputs": [],
      "name": "getOwner",
      "outputs": [
        {
          "internalType": "address",
          "name": "",
          "type": "address"
        }
      ],
      "stateMutability": "view",
      "type": "function",
      "constant": true
    },
    {
      "inputs": [
        {
          "internalType": "address",
          "name": "newOwner",
          "type": "address"
        }
      ],
      "name": "transferOwnership",
      "outputs": [],
      "stateMutability": "nonpayable",
      "type": "function"
    },
    {
      "inputs": [
        {
          "internalType": "bytes32",
          "name": "courseId",
          "type": "bytes32"
        }
      ],
      "name": "purchaseCourse",
      "outputs": [],
      "stateMutability": "payable",
      "type": "function",
      "payable": true
    },
    {
      "inputs": [],
      "name": "getCourseCount",
      "outputs": [
        {
          "internalType": "uint256",
          "name": "",
          "type": "uint256"
        }
      ],
      "stateMutability": "view",
      "type": "function",
      "constant": true
    },
    {
      "inputs": [
        {
          "internalType": "uint256",
          "name": "index",
          "type": "uint256"
        }
      ],
      "name": "getCourseHashAtIndex",
      "outputs": [
        {
          "internalType": "bytes32",
          "name": "",
          "type": "bytes32"
        }
      ],
      "stateMutability": "view",
      "type": "function",
      "constant": true
    },
    {
      "inputs": [
        {
          "internalType": "bytes32",
          "name": "courseHash",
          "type": "bytes32"
        }
      ],
      "name": "getCourseByHash",
      "outputs": [
        {
          "components": [
            {
              "internalType": "uint256",
              "name": "id",
              "type": "uint256"
            },
            {
              "internalType": "uint256",
              "name": "price",
              "type": "uint256"
            },
            {
              "internalType": "bytes32",
              "name": "proof",
              "type": "bytes32"
            },
            {
              "internalType": "address",
              "name": "owner",
              "type": "address"
            },
            {
              "internalType": "enum CourseMarketplace.State",
              "name": "state",
              "type": "uint8"
            }
          ],
          "internalType": "struct CourseMarketplace.Course",
          "name": "",
          "type": "tuple"
        }
      ],
      "stateMutability": "view",
      "type": "function",
      "constant": true
    }
  ],
  "bytecode": "0x608060405234801561001057600080fd5b50336000806101000a81548173ffffffffffffffffffffffffffffffffffffffff021916908373ffffffffffffffffffffffffffffffffffffffff160217905550610a9a806100606000396000f3fe6080604052600436106100555760003560e01c806362e4e6ac1461005a5780636d11290b14610097578063893d20e8146100d457806396cfda06146100ff578063cf3b8eaa1461012a578063f2fde38b14610146575b600080fd5b34801561006657600080fd5b50610081600480360381019061007c91906105f4565b61016f565b60405161008e9190610769565b60405180910390f35b3480156100a357600080fd5b506100be60048036038101906100b991906107b0565b61024b565b6040516100cb91906107ec565b60405180910390f35b3480156100e057600080fd5b506100e9610268565b6040516100f69190610816565b60405180910390f35b34801561010b57600080fd5b50610114610291565b6040516101219190610840565b60405180910390f35b610144600480360381019061013f91906105f4565b61029b565b005b34801561015257600080fd5b5061016d60048036038101906101689190610887565b61043a565b005b610177610560565b600160008381526020019081526020016000206040518060a00160405290816000820154815260200160018201548152602001600282015481526020016003820160009054906101000a900473ffffffffffffffffffffffffffffffffffffffff1673ffffffffffffffffffffffffffffffffffffffff1673ffffffffffffffffffffffffffffffffffffffff1681526020016003820160149054906101000a900460ff16600081111561022e5761022d61068a565b5b60008111156102405761023f61068a565b5b815250509050919050565b600060026000838152602001908152602001600020549050919050565b60008060009054906101000a900473ffffffffffffffffffffffffffffffffffffffff16905090565b6000600354905090565b600081336040516020016102b092919061091d565b6040516020818303038152906040528051906020012090506102d1816104f2565b15610308576040517f836d466800000000000000000000000000000000000000000000000000000000815260040160405180910390fd5b60006003600081548092919061031d90610978565b9190505590508160026000838152602001908152602001600020819055506040518060a001604052808281526020013481526020018381526020013373ffffffffffffffffffffffffffffffffffffffff1681526020016000808111156103875761038661068a565b5b8152506001600084815260200190815260200160002060008201518160000155602082015181600101556040820151816002015560608201518160030160006101000a81548173ffffffffffffffffffffffffffffffffffffffff021916908373ffffffffffffffffffffffffffffffffffffffff16021790555060808201518160030160146101000a81548160ff0219169083600081111561042d5761042c61068a565b5b0217905550905050505050565b610442610268565b73ffffffffffffffffffffffffffffffffffffffff163373ffffffffffffffffffffffffffffffffffffffff16146104af576040517f08c379a00000000000000000000000000000000000000000000000000000000081526004016104a690610a44565b60405180910390fd5b806000806101000a81548173ffffffffffffffffffffffffffffffffffffffff021916908373ffffffffffffffffffffffffffffffffffffffff16021790555050565b60003373ffffffffffffffffffffffffffffffffffffffff166001600084815260200190815260200160002060030160009054906101000a900473ffffffffffffffffffffffffffffffffffffffff1673ffffffffffffffffffffffffffffffffffffffff16149050919050565b6040518060a00160405280600081526020016000815260200160008019168152602001600073ffffffffffffffffffffffffffffffffffffffff1681526020016000808111156105b3576105b261068a565b5b81525090565b600080fd5b6000819050919050565b6105d1816105be565b81146105dc57600080fd5b50565b6000813590506105ee816105c8565b92915050565b60006020828403121561060a576106096105b9565b5b6000610618848285016105df565b91505092915050565b6000819050919050565b61063481610621565b82525050565b610643816105be565b82525050565b600073ffffffffffffffffffffffffffffffffffffffff82169050919050565b600061067482610649565b9050919050565b61068481610669565b82525050565b7f4e487b7100000000000000000000000000000000000000000000000000000000600052602160045260246000fd5b600181106106ca576106c961068a565b5b50565b60008190506106db826106b9565b919050565b60006106eb826106cd565b9050919050565b6106fb816106e0565b82525050565b60a082016000820151610717600085018261062b565b50602082015161072a602085018261062b565b50604082015161073d604085018261063a565b506060820151610750606085018261067b565b50608082015161076360808501826106f2565b50505050565b600060a08201905061077e6000830184610701565b92915050565b61078d81610621565b811461079857600080fd5b50565b6000813590506107aa81610784565b92915050565b6000602082840312156107c6576107c56105b9565b5b60006107d48482850161079b565b91505092915050565b6107e6816105be565b82525050565b600060208201905061080160008301846107dd565b92915050565b61081081610669565b82525050565b600060208201905061082b6000830184610807565b92915050565b61083a81610621565b82525050565b60006020820190506108556000830184610831565b92915050565b61086481610669565b811461086f57600080fd5b50565b6000813590506108818161085b565b92915050565b60006020828403121561089d5761089c6105b9565b5b60006108ab84828501610872565b91505092915050565b6000819050919050565b6108cf6108ca826105be565b6108b4565b82525050565b60008160601b9050919050565b60006108ed826108d5565b9050919050565b60006108ff826108e2565b9050919050565b61091761091282610669565b6108f4565b82525050565b600061092982856108be565b6020820191506109398284610906565b6014820191508190509392505050565b7f4e487b7100000000000000000000000000000000000000000000000000000000600052601160045260246000fd5b600061098382610621565b91507fffffffffffffffffffffffffffffffffffffffffffffffffffffffffffffffff8214156109b6576109b5610949565b5b600182019050919050565b600082825260208201905092915050565b7f4f6e6c7920746865206f776e6572206f662074686520636f6e7472616374206360008201527f616e2063616c6c20746869732066756e6374696f6e0000000000000000000000602082015250565b6000610a2e6035836109c1565b9150610a39826109d2565b604082019050919050565b60006020820190508181036000830152610a5d81610a21565b905091905056fea26469706673582212202f40950625e7c483c467085f093c45167163948035e49a95c611b1e6df47a5a864736f6c634300080a0033",
  "immutableReferences": {},
  "source": "// SPDX-License-Identifier: MIT\npragma solidity >=0.4.22 <0.9.0;\n\nimport \"./Owned.sol\";\n\n/// @title CourseMarketplace\n/// @author Luca Lo Forte - Lo Forte Coding\n/// @notice CourseMarketplace is a contract that allows users to purchase online courses from the Marketeplace Ethereum Next JS Web app\ncontract CourseMarketplace is Owned {\n    enum State {\n        Purchased\n    }\n\n    struct Course {\n        uint256 id; // 32\n        uint256 price; // 32\n        bytes32 proof; // 32\n        address owner; // 20\n        State state; // 1\n    }\n    \n    mapping(bytes32 => Course) private ownedCourses; //Mapping of courseHash to CourseData\n    mapping(uint256 => bytes32) private ownedCoursesHash; // Mapping courseId to courseHash\n    uint256 private totalOwnedCourses;\n\n    /// Course has already been purchased by this user\n    error CourseOwner();\n\n    function purchaseCourse(bytes32 courseId) external payable {\n        // the course hash is gonna be an unique value -> the hash of the courseID + the sender address\n        bytes32 courseHash = keccak256(abi.encodePacked(courseId, msg.sender));\n\n        if (userHasCourse(courseHash)) {\n            revert CourseOwner();\n        }\n\n        uint256 id = totalOwnedCourses++;\n        ownedCoursesHash[id] = courseHash;\n        \n        ownedCourses[courseHash] = Course({\n            id: id,\n            price: msg.value,\n            proof: courseHash,\n            owner: msg.sender,\n            state: State.Purchased\n        });\n    }\n\n    function getCourseCount() external view returns (uint256) {\n        return totalOwnedCourses;\n    }\n\n    function getCourseHashAtIndex(uint256 index) external view returns (bytes32) {\n        return ownedCoursesHash[index];\n    }\n\n    function getCourseByHash(bytes32 courseHash) external view returns (Course memory) {\n        return ownedCourses[courseHash];\n    }\n\n    function userHasCourse(bytes32 courseHash) private view returns (bool) {\n        return ownedCourses[courseHash].owner == msg.sender;\n    }\n}\n",
  "sourcePath": "/Users/lucaloforte/Documents/Development/Dapp/Projects/marketplace-eth/contracts/CourseMarketplace.sol",
  "compiler": {
    "name": "solc",
    "version": "0.8.10+commit.fc410830.Emscripten.clang"
  },
  "schemaVersion": "3.4.3",
  "updatedAt": "2022-03-04T11:35:09.288Z",
  "networkType": "ethereum",
  "devdoc": {
    "author": "Luca Lo Forte - Lo Forte Coding",
    "kind": "dev",
    "methods": {},
    "title": "CourseMarketplace",
    "version": 1
  },
  "userdoc": {
    "errors": {
      "CourseOwner()": [
        {
          "notice": "Course has already been purchased by this user"
        }
      ]
    },
    "kind": "user",
    "methods": {},
    "notice": "CourseMarketplace is a contract that allows users to purchase online courses from the Marketeplace Ethereum Next JS Web app",
    "version": 1
  }
}