{
  "contractName": "CourseMarketplace",
  "abi": [
    {
      "inputs": [],
      "name": "CourseOwner",
      "type": "error"
    },
    {
      "inputs": [],
      "name": "getOwner",
      "outputs": [
        {
          "internalType": "address",
          "name": "",
          "type": "address"
        }
      ],
      "stateMutability": "view",
      "type": "function",
      "constant": true
    },
    {
      "inputs": [
        {
          "internalType": "address",
          "name": "newOwner",
          "type": "address"
        }
      ],
      "name": "transferOwnership",
      "outputs": [],
      "stateMutability": "nonpayable",
      "type": "function"
    },
    {
      "inputs": [
        {
          "internalType": "bytes32",
          "name": "courseId",
          "type": "bytes32"
        },
        {
          "internalType": "bytes32",
          "name": "emailHash",
          "type": "bytes32"
        }
      ],
      "name": "purchaseCourse",
      "outputs": [],
      "stateMutability": "payable",
      "type": "function",
      "payable": true
    },
    {
      "inputs": [],
      "name": "getCourseCount",
      "outputs": [
        {
          "internalType": "uint256",
          "name": "",
          "type": "uint256"
        }
      ],
      "stateMutability": "view",
      "type": "function",
      "constant": true
    },
    {
      "inputs": [
        {
          "internalType": "uint256",
          "name": "index",
          "type": "uint256"
        }
      ],
      "name": "getCourseHashAtIndex",
      "outputs": [
        {
          "internalType": "bytes32",
          "name": "",
          "type": "bytes32"
        }
      ],
      "stateMutability": "view",
      "type": "function",
      "constant": true
    },
    {
      "inputs": [
        {
          "internalType": "bytes32",
          "name": "courseHash",
          "type": "bytes32"
        }
      ],
      "name": "getCourseByHash",
      "outputs": [
        {
          "components": [
            {
              "internalType": "uint256",
              "name": "id",
              "type": "uint256"
            },
            {
              "internalType": "uint256",
              "name": "price",
              "type": "uint256"
            },
            {
              "internalType": "bytes32",
              "name": "proof",
              "type": "bytes32"
            },
            {
              "internalType": "address",
              "name": "owner",
              "type": "address"
            },
            {
              "internalType": "enum CourseMarketplace.State",
              "name": "state",
              "type": "uint8"
            }
          ],
          "internalType": "struct CourseMarketplace.Course",
          "name": "",
          "type": "tuple"
        }
      ],
      "stateMutability": "view",
      "type": "function",
      "constant": true
    }
  ],
  "bytecode": "0x608060405234801561001057600080fd5b50336000806101000a81548173ffffffffffffffffffffffffffffffffffffffff021916908373ffffffffffffffffffffffffffffffffffffffff160217905550610b37806100606000396000f3fe6080604052600436106100555760003560e01c80632f27f51a1461005a57806362e4e6ac146100765780636d11290b146100b3578063893d20e8146100f057806396cfda061461011b578063f2fde38b14610146575b600080fd5b610074600480360381019061006f9190610625565b61016f565b005b34801561008257600080fd5b5061009d60048036038101906100989190610665565b61033e565b6040516100aa91906107da565b60405180910390f35b3480156100bf57600080fd5b506100da60048036038101906100d59190610821565b61041a565b6040516100e7919061085d565b60405180910390f35b3480156100fc57600080fd5b50610105610437565b6040516101129190610887565b60405180910390f35b34801561012757600080fd5b50610130610460565b60405161013d91906108b1565b60405180910390f35b34801561015257600080fd5b5061016d600480360381019061016891906108f8565b61046a565b005b6000823360405160200161018492919061098e565b6040516020818303038152906040528051906020012090506101a581610522565b156101dc576040517f836d466800000000000000000000000000000000000000000000000000000000815260040160405180910390fd5b600082826040516020016101f19291906109ba565b60405160208183030381529060405280519060200120905060006003600081548092919061021e90610a15565b9190505590508260026000838152602001908152602001600020819055506040518060a001604052808281526020013481526020018381526020013373ffffffffffffffffffffffffffffffffffffffff16815260200160006002811115610289576102886106fb565b5b8152506001600085815260200190815260200160002060008201518160000155602082015181600101556040820151816002015560608201518160030160006101000a81548173ffffffffffffffffffffffffffffffffffffffff021916908373ffffffffffffffffffffffffffffffffffffffff16021790555060808201518160030160146101000a81548160ff0219169083600281111561032f5761032e6106fb565b5b02179055509050505050505050565b610346610590565b600160008381526020019081526020016000206040518060a00160405290816000820154815260200160018201548152602001600282015481526020016003820160009054906101000a900473ffffffffffffffffffffffffffffffffffffffff1673ffffffffffffffffffffffffffffffffffffffff1673ffffffffffffffffffffffffffffffffffffffff1681526020016003820160149054906101000a900460ff1660028111156103fd576103fc6106fb565b5b600281111561040f5761040e6106fb565b5b815250509050919050565b600060026000838152602001908152602001600020549050919050565b60008060009054906101000a900473ffffffffffffffffffffffffffffffffffffffff16905090565b6000600354905090565b610472610437565b73ffffffffffffffffffffffffffffffffffffffff163373ffffffffffffffffffffffffffffffffffffffff16146104df576040517f08c379a00000000000000000000000000000000000000000000000000000000081526004016104d690610ae1565b60405180910390fd5b806000806101000a81548173ffffffffffffffffffffffffffffffffffffffff021916908373ffffffffffffffffffffffffffffffffffffffff16021790555050565b60003373ffffffffffffffffffffffffffffffffffffffff166001600084815260200190815260200160002060030160009054906101000a900473ffffffffffffffffffffffffffffffffffffffff1673ffffffffffffffffffffffffffffffffffffffff16149050919050565b6040518060a00160405280600081526020016000815260200160008019168152602001600073ffffffffffffffffffffffffffffffffffffffff168152602001600060028111156105e4576105e36106fb565b5b81525090565b600080fd5b6000819050919050565b610602816105ef565b811461060d57600080fd5b50565b60008135905061061f816105f9565b92915050565b6000806040838503121561063c5761063b6105ea565b5b600061064a85828601610610565b925050602061065b85828601610610565b9150509250929050565b60006020828403121561067b5761067a6105ea565b5b600061068984828501610610565b91505092915050565b6000819050919050565b6106a581610692565b82525050565b6106b4816105ef565b82525050565b600073ffffffffffffffffffffffffffffffffffffffff82169050919050565b60006106e5826106ba565b9050919050565b6106f5816106da565b82525050565b7f4e487b7100000000000000000000000000000000000000000000000000000000600052602160045260246000fd5b6003811061073b5761073a6106fb565b5b50565b600081905061074c8261072a565b919050565b600061075c8261073e565b9050919050565b61076c81610751565b82525050565b60a082016000820151610788600085018261069c565b50602082015161079b602085018261069c565b5060408201516107ae60408501826106ab565b5060608201516107c160608501826106ec565b5060808201516107d46080850182610763565b50505050565b600060a0820190506107ef6000830184610772565b92915050565b6107fe81610692565b811461080957600080fd5b50565b60008135905061081b816107f5565b92915050565b600060208284031215610837576108366105ea565b5b60006108458482850161080c565b91505092915050565b610857816105ef565b82525050565b6000602082019050610872600083018461084e565b92915050565b610881816106da565b82525050565b600060208201905061089c6000830184610878565b92915050565b6108ab81610692565b82525050565b60006020820190506108c660008301846108a2565b92915050565b6108d5816106da565b81146108e057600080fd5b50565b6000813590506108f2816108cc565b92915050565b60006020828403121561090e5761090d6105ea565b5b600061091c848285016108e3565b91505092915050565b6000819050919050565b61094061093b826105ef565b610925565b82525050565b60008160601b9050919050565b600061095e82610946565b9050919050565b600061097082610953565b9050919050565b610988610983826106da565b610965565b82525050565b600061099a828561092f565b6020820191506109aa8284610977565b6014820191508190509392505050565b60006109c6828561092f565b6020820191506109d6828461092f565b6020820191508190509392505050565b7f4e487b7100000000000000000000000000000000000000000000000000000000600052601160045260246000fd5b6000610a2082610692565b91507fffffffffffffffffffffffffffffffffffffffffffffffffffffffffffffffff821415610a5357610a526109e6565b5b600182019050919050565b600082825260208201905092915050565b7f4f6e6c7920746865206f776e6572206f662074686520636f6e7472616374206360008201527f616e2063616c6c20746869732066756e6374696f6e0000000000000000000000602082015250565b6000610acb603583610a5e565b9150610ad682610a6f565b604082019050919050565b60006020820190508181036000830152610afa81610abe565b905091905056fea264697066735822122025c594dca40c9b06faecf63eec22c970514839d356dea1d90c7e157291119cf664736f6c634300080a0033",
  "immutableReferences": {},
  "source": "// SPDX-License-Identifier: MIT\npragma solidity >=0.4.22 <0.9.0;\n\nimport \"./Owned.sol\";\n\n/// @title CourseMarketplace\n/// @author Luca Lo Forte - Lo Forte Coding\n/// @notice CourseMarketplace is a contract that allows users to purchase online courses from the Marketeplace Ethereum Next JS Web app\ncontract CourseMarketplace is Owned {\n    enum State {\n        Purchased,\n        Activated,\n        Deactivated\n    }\n\n    struct Course {\n        uint256 id; // 32\n        uint256 price; // 32\n        bytes32 proof; // 32\n        address owner; // 20\n        State state; // 1\n    }\n    \n    mapping(bytes32 => Course) private ownedCourses; //Mapping of courseHash to CourseData\n    mapping(uint256 => bytes32) private ownedCoursesHash; // Mapping courseId to courseHash\n    uint256 private totalOwnedCourses;\n\n    /// Course has already been purchased by this user\n    error CourseOwner();\n\n    function purchaseCourse(bytes32 courseId, bytes32 emailHash) external payable {\n        // the course hash is gonna be an unique value -> the hash of the courseID + the sender address\n        bytes32 courseHash = keccak256(abi.encodePacked(courseId, msg.sender));\n\n        if (userHasCourse(courseHash)) {\n            revert CourseOwner();\n        }\n\n        bytes32 proof = keccak256(abi.encodePacked(emailHash, courseHash));\n        uint256 id = totalOwnedCourses++;\n        ownedCoursesHash[id] = courseHash;\n        \n        ownedCourses[courseHash] = Course({\n            id: id,\n            price: msg.value,\n            proof: proof,\n            owner: msg.sender,\n            state: State.Purchased\n        });\n    }\n\n    function getCourseCount() external view returns (uint256) {\n        return totalOwnedCourses;\n    }\n\n    function getCourseHashAtIndex(uint256 index)\n        external\n        view\n        returns (bytes32)\n    {\n        return ownedCoursesHash[index];\n    }\n\n    function getCourseByHash(bytes32 courseHash)\n        external\n        view\n        returns (Course memory)\n    {\n        return ownedCourses[courseHash];\n    }\n\n    function userHasCourse(bytes32 courseHash) private view returns (bool) {\n        return ownedCourses[courseHash].owner == msg.sender;\n    }\n}\n",
  "sourcePath": "/Users/lucaloforte/Documents/Development/Dapp/Projects/marketplace-eth/contracts/CourseMarketplace.sol",
  "compiler": {
    "name": "solc",
    "version": "0.8.10+commit.fc410830.Emscripten.clang"
  },
  "schemaVersion": "3.4.3",
  "updatedAt": "2022-02-23T19:15:55.544Z",
  "networkType": "ethereum",
  "devdoc": {
    "author": "Luca Lo Forte - Lo Forte Coding",
    "kind": "dev",
    "methods": {},
    "title": "CourseMarketplace",
    "version": 1
  },
  "userdoc": {
    "errors": {
      "CourseOwner()": [
        {
          "notice": "Course has already been purchased by this user"
        }
      ]
    },
    "kind": "user",
    "methods": {},
    "notice": "CourseMarketplace is a contract that allows users to purchase online courses from the Marketeplace Ethereum Next JS Web app",
    "version": 1
  }
}