{
  "contractName": "CourseMarketplace",
  "abi": [
    {
      "inputs": [],
      "name": "CourseOwner",
      "type": "error"
    },
    {
      "inputs": [],
      "name": "getOwner",
      "outputs": [
        {
          "internalType": "address",
          "name": "",
          "type": "address"
        }
      ],
      "stateMutability": "view",
      "type": "function",
      "constant": true
    },
    {
      "inputs": [
        {
          "internalType": "address",
          "name": "newOwner",
          "type": "address"
        }
      ],
      "name": "transferOwnership",
      "outputs": [],
      "stateMutability": "nonpayable",
      "type": "function"
    },
    {
      "inputs": [
        {
          "internalType": "bytes32",
          "name": "courseId",
          "type": "bytes32"
        },
        {
          "internalType": "bytes32",
          "name": "proof",
          "type": "bytes32"
        }
      ],
      "name": "purchaseCourse",
      "outputs": [],
      "stateMutability": "payable",
      "type": "function",
      "payable": true
    },
    {
      "inputs": [],
      "name": "getCourseCount",
      "outputs": [
        {
          "internalType": "uint256",
          "name": "",
          "type": "uint256"
        }
      ],
      "stateMutability": "view",
      "type": "function",
      "constant": true
    },
    {
      "inputs": [
        {
          "internalType": "uint256",
          "name": "index",
          "type": "uint256"
        }
      ],
      "name": "getCourseHashAtIndex",
      "outputs": [
        {
          "internalType": "bytes32",
          "name": "",
          "type": "bytes32"
        }
      ],
      "stateMutability": "view",
      "type": "function",
      "constant": true
    },
    {
      "inputs": [
        {
          "internalType": "bytes32",
          "name": "courseHash",
          "type": "bytes32"
        }
      ],
      "name": "getCourseByHash",
      "outputs": [
        {
          "components": [
            {
              "internalType": "uint256",
              "name": "id",
              "type": "uint256"
            },
            {
              "internalType": "uint256",
              "name": "price",
              "type": "uint256"
            },
            {
              "internalType": "bytes32",
              "name": "proof",
              "type": "bytes32"
            },
            {
              "internalType": "address",
              "name": "owner",
              "type": "address"
            },
            {
              "internalType": "enum CourseMarketplace.State",
              "name": "state",
              "type": "uint8"
            }
          ],
          "internalType": "struct CourseMarketplace.Course",
          "name": "",
          "type": "tuple"
        }
      ],
      "stateMutability": "view",
      "type": "function",
      "constant": true
    }
  ],
  "bytecode": "0x608060405234801561001057600080fd5b50336000806101000a81548173ffffffffffffffffffffffffffffffffffffffff021916908373ffffffffffffffffffffffffffffffffffffffff160217905550610add806100606000396000f3fe6080604052600436106100555760003560e01c80632f27f51a1461005a57806362e4e6ac146100765780636d11290b146100b3578063893d20e8146100f057806396cfda061461011b578063f2fde38b14610146575b600080fd5b610074600480360381019061006f91906105f7565b61016f565b005b34801561008257600080fd5b5061009d60048036038101906100989190610637565b610310565b6040516100aa91906107ac565b60405180910390f35b3480156100bf57600080fd5b506100da60048036038101906100d591906107f3565b6103ec565b6040516100e7919061082f565b60405180910390f35b3480156100fc57600080fd5b50610105610409565b6040516101129190610859565b60405180910390f35b34801561012757600080fd5b50610130610432565b60405161013d9190610883565b60405180910390f35b34801561015257600080fd5b5061016d600480360381019061016891906108ca565b61043c565b005b60008233604051602001610184929190610960565b6040516020818303038152906040528051906020012090506101a5816104f4565b156101dc576040517f836d466800000000000000000000000000000000000000000000000000000000815260040160405180910390fd5b6000600360008154809291906101f1906109bb565b9190505590508160026000838152602001908152602001600020819055506040518060a001604052808281526020013481526020018481526020013373ffffffffffffffffffffffffffffffffffffffff1681526020016000600281111561025c5761025b6106cd565b5b8152506001600084815260200190815260200160002060008201518160000155602082015181600101556040820151816002015560608201518160030160006101000a81548173ffffffffffffffffffffffffffffffffffffffff021916908373ffffffffffffffffffffffffffffffffffffffff16021790555060808201518160030160146101000a81548160ff02191690836002811115610302576103016106cd565b5b021790555090505050505050565b610318610562565b600160008381526020019081526020016000206040518060a00160405290816000820154815260200160018201548152602001600282015481526020016003820160009054906101000a900473ffffffffffffffffffffffffffffffffffffffff1673ffffffffffffffffffffffffffffffffffffffff1673ffffffffffffffffffffffffffffffffffffffff1681526020016003820160149054906101000a900460ff1660028111156103cf576103ce6106cd565b5b60028111156103e1576103e06106cd565b5b815250509050919050565b600060026000838152602001908152602001600020549050919050565b60008060009054906101000a900473ffffffffffffffffffffffffffffffffffffffff16905090565b6000600354905090565b610444610409565b73ffffffffffffffffffffffffffffffffffffffff163373ffffffffffffffffffffffffffffffffffffffff16146104b1576040517f08c379a00000000000000000000000000000000000000000000000000000000081526004016104a890610a87565b60405180910390fd5b806000806101000a81548173ffffffffffffffffffffffffffffffffffffffff021916908373ffffffffffffffffffffffffffffffffffffffff16021790555050565b60003373ffffffffffffffffffffffffffffffffffffffff166001600084815260200190815260200160002060030160009054906101000a900473ffffffffffffffffffffffffffffffffffffffff1673ffffffffffffffffffffffffffffffffffffffff16149050919050565b6040518060a00160405280600081526020016000815260200160008019168152602001600073ffffffffffffffffffffffffffffffffffffffff168152602001600060028111156105b6576105b56106cd565b5b81525090565b600080fd5b6000819050919050565b6105d4816105c1565b81146105df57600080fd5b50565b6000813590506105f1816105cb565b92915050565b6000806040838503121561060e5761060d6105bc565b5b600061061c858286016105e2565b925050602061062d858286016105e2565b9150509250929050565b60006020828403121561064d5761064c6105bc565b5b600061065b848285016105e2565b91505092915050565b6000819050919050565b61067781610664565b82525050565b610686816105c1565b82525050565b600073ffffffffffffffffffffffffffffffffffffffff82169050919050565b60006106b78261068c565b9050919050565b6106c7816106ac565b82525050565b7f4e487b7100000000000000000000000000000000000000000000000000000000600052602160045260246000fd5b6003811061070d5761070c6106cd565b5b50565b600081905061071e826106fc565b919050565b600061072e82610710565b9050919050565b61073e81610723565b82525050565b60a08201600082015161075a600085018261066e565b50602082015161076d602085018261066e565b506040820151610780604085018261067d565b50606082015161079360608501826106be565b5060808201516107a66080850182610735565b50505050565b600060a0820190506107c16000830184610744565b92915050565b6107d081610664565b81146107db57600080fd5b50565b6000813590506107ed816107c7565b92915050565b600060208284031215610809576108086105bc565b5b6000610817848285016107de565b91505092915050565b610829816105c1565b82525050565b60006020820190506108446000830184610820565b92915050565b610853816106ac565b82525050565b600060208201905061086e600083018461084a565b92915050565b61087d81610664565b82525050565b60006020820190506108986000830184610874565b92915050565b6108a7816106ac565b81146108b257600080fd5b50565b6000813590506108c48161089e565b92915050565b6000602082840312156108e0576108df6105bc565b5b60006108ee848285016108b5565b91505092915050565b6000819050919050565b61091261090d826105c1565b6108f7565b82525050565b60008160601b9050919050565b600061093082610918565b9050919050565b600061094282610925565b9050919050565b61095a610955826106ac565b610937565b82525050565b600061096c8285610901565b60208201915061097c8284610949565b6014820191508190509392505050565b7f4e487b7100000000000000000000000000000000000000000000000000000000600052601160045260246000fd5b60006109c682610664565b91507fffffffffffffffffffffffffffffffffffffffffffffffffffffffffffffffff8214156109f9576109f861098c565b5b600182019050919050565b600082825260208201905092915050565b7f4f6e6c7920746865206f776e6572206f662074686520636f6e7472616374206360008201527f616e2063616c6c20746869732066756e6374696f6e0000000000000000000000602082015250565b6000610a71603583610a04565b9150610a7c82610a15565b604082019050919050565b60006020820190508181036000830152610aa081610a64565b905091905056fea2646970667358221220c9971bfd2e1d133d99b212477e08db6ef1c62328d65b789e06bbd5960cc0930964736f6c634300080a0033",
  "immutableReferences": {},
  "source": "// SPDX-License-Identifier: MIT\npragma solidity >=0.4.22 <0.9.0;\n\nimport \"./Owned.sol\";\n\n/// @title CourseMarketplace\n/// @author Luca Lo Forte - Lo Forte Coding\n/// @notice CourseMarketplace is a contract that allows users to purchase online courses from the Marketeplace Ethereum Next JS Web app\ncontract CourseMarketplace is Owned {\n    enum State {\n        Purchased,\n        Activated,\n        Deactivated\n    }\n\n    struct Course {\n        uint256 id; // 32\n        uint256 price; // 32\n        bytes32 proof; // 32\n        address owner; // 20\n        State state; // 1\n    }\n    \n    mapping(bytes32 => Course) private ownedCourses; //Mapping of courseHash to CourseData\n    mapping(uint256 => bytes32) private ownedCoursesHash; // Mapping courseId to courseHash\n    uint256 private totalOwnedCourses;\n\n    /// Course has already been purchased by this user\n    error CourseOwner();\n\n    function purchaseCourse(bytes32 courseId, bytes32 proof) external payable {\n        // the course hash is gonna be an unique value -> the hash of the courseID + the sender address\n        bytes32 courseHash = keccak256(abi.encodePacked(courseId, msg.sender));\n\n        if (userHasCourse(courseHash)) {\n            revert CourseOwner();\n        }\n\n        uint256 id = totalOwnedCourses++;\n        ownedCoursesHash[id] = courseHash;\n        ownedCourses[courseHash] = Course({\n            id: id,\n            price: msg.value,\n            proof: proof,\n            owner: msg.sender,\n            state: State.Purchased\n        });\n    }\n\n    function getCourseCount() external view returns (uint256) {\n        return totalOwnedCourses;\n    }\n\n    function getCourseHashAtIndex(uint256 index)\n        external\n        view\n        returns (bytes32)\n    {\n        return ownedCoursesHash[index];\n    }\n\n    function getCourseByHash(bytes32 courseHash)\n        external\n        view\n        returns (Course memory)\n    {\n        return ownedCourses[courseHash];\n    }\n\n    function userHasCourse(bytes32 courseHash) private view returns (bool) {\n        return ownedCourses[courseHash].owner == msg.sender;\n    }\n}\n",
  "sourcePath": "/Users/lucaloforte/Documents/Development/Dapp/Projects/marketplace-eth/contracts/CourseMarketplace.sol",
  "compiler": {
    "name": "solc",
    "version": "0.8.10+commit.fc410830.Emscripten.clang"
  },
  "schemaVersion": "3.4.3",
  "updatedAt": "2022-02-22T18:22:32.400Z",
  "networkType": "ethereum",
  "devdoc": {
    "author": "Luca Lo Forte - Lo Forte Coding",
    "kind": "dev",
    "methods": {},
    "title": "CourseMarketplace",
    "version": 1
  },
  "userdoc": {
    "errors": {
      "CourseOwner()": [
        {
          "notice": "Course has already been purchased by this user"
        }
      ]
    },
    "kind": "user",
    "methods": {},
    "notice": "CourseMarketplace is a contract that allows users to purchase online courses from the Marketeplace Ethereum Next JS Web app",
    "version": 1
  }
}