{
  "contractName": "CourseMarketplace",
  "abi": [
    {
      "inputs": [
        {
          "internalType": "bytes32",
          "name": "courseId",
          "type": "bytes32"
        }
      ],
      "name": "purchaseCourse",
      "outputs": [
        {
          "internalType": "bytes32",
          "name": "",
          "type": "bytes32"
        }
      ],
      "stateMutability": "payable",
      "type": "function",
      "payable": true
    }
  ],
  "bytecode": "0x608060405234801561001057600080fd5b50610219806100206000396000f3fe60806040526004361061001e5760003560e01c8063cf3b8eaa14610023575b600080fd5b61003d600480360381019061003891906100c5565b610053565b60405161004a9190610101565b60405180910390f35b60008082336040516020016100699291906101b7565b60405160208183030381529060405280519060200120905080915050919050565b600080fd5b6000819050919050565b6100a28161008f565b81146100ad57600080fd5b50565b6000813590506100bf81610099565b92915050565b6000602082840312156100db576100da61008a565b5b60006100e9848285016100b0565b91505092915050565b6100fb8161008f565b82525050565b600060208201905061011660008301846100f2565b92915050565b6000819050919050565b6101376101328261008f565b61011c565b82525050565b600073ffffffffffffffffffffffffffffffffffffffff82169050919050565b60006101688261013d565b9050919050565b60008160601b9050919050565b60006101878261016f565b9050919050565b60006101998261017c565b9050919050565b6101b16101ac8261015d565b61018e565b82525050565b60006101c38285610126565b6020820191506101d382846101a0565b601482019150819050939250505056fea2646970667358221220f2f2137417abc65b65f5b0399eeba5ffc4b388a6fba1a9cecaaa93c5a8d05c7064736f6c634300080a0033",
  "immutableReferences": {},
  "source": "// SPDX-License-Identifier: MIT\npragma solidity >=0.4.22 <0.9.0;\n\ncontract CourseMarketplace {\n    enum State {\n        Purchased,\n        Activated,\n        Deactivated\n    }\n\n    struct Course {\n        uint256 id; // 32\n        uint256 price; // 32\n        bytes32 proof; // 32\n        address owner; // 20\n        State state; // 1\n    }\n\n    // courseID -> 022720b6-e598-40ee-9879-d9800c56bceb\n    // courseID hex -> 0x3032323732306236653539383430656539383739643938303063353662636562\n    // Address -> 0x5B38Da6a701c568545dCfcB03FcB875f56beddC4\n    // courseId hex + address -> 30323237323062366535393834306565393837396439383030633536626365625B38Da6a701c568545dCfcB03FcB875f56beddC4\n    // keccak256 -> 2f61d53bb8a08265112c9c825311f7e4fe977d42d140f7eb1bfdc92125fe712d\n\n    function purchaseCourse(bytes32 courseId) external payable returns (bytes32) {\n        // the course hash is gonna be an unique value -> the hash of the courseID + the sender address\n        bytes32 courseHash = keccak256(abi.encodePacked(courseId, msg.sender));\n        return courseHash;\n    }\n}\n",
  "sourcePath": "/Users/lucaloforte/Documents/Development/Dapp/Projects/marketplace-eth/contracts/CourseMarketplace.sol",
  "compiler": {
    "name": "solc",
    "version": "0.8.10+commit.fc410830.Emscripten.clang"
  },
  "schemaVersion": "3.4.3",
  "updatedAt": "2022-02-21T21:56:31.587Z",
  "networkType": "ethereum",
  "devdoc": {
    "kind": "dev",
    "methods": {},
    "version": 1
  },
  "userdoc": {
    "kind": "user",
    "methods": {},
    "version": 1
  }
}