{
  "contractName": "Owned",
  "abi": [
    {
      "inputs": [],
      "stateMutability": "nonpayable",
      "type": "constructor"
    },
    {
      "inputs": [
        {
          "internalType": "address",
          "name": "newOwner",
          "type": "address"
        }
      ],
      "name": "transferOwnership",
      "outputs": [],
      "stateMutability": "nonpayable",
      "type": "function"
    },
    {
      "inputs": [],
      "name": "getOwner",
      "outputs": [
        {
          "internalType": "address",
          "name": "",
          "type": "address"
        }
      ],
      "stateMutability": "view",
      "type": "function"
    }
  ],
  "bytecode": "0x608060405234801561001057600080fd5b50336000806101000a81548173ffffffffffffffffffffffffffffffffffffffff021916908373ffffffffffffffffffffffffffffffffffffffff1602179055506102e9806100606000396000f3fe608060405234801561001057600080fd5b50600436106100365760003560e01c8063893d20e81461003b578063f2fde38b14610059575b600080fd5b610043610075565b6040516100509190610197565b60405180910390f35b610073600480360381019061006e91906101e3565b61009e565b005b60008060009054906101000a900473ffffffffffffffffffffffffffffffffffffffff16905090565b6100a6610075565b73ffffffffffffffffffffffffffffffffffffffff163373ffffffffffffffffffffffffffffffffffffffff1614610113576040517f08c379a000000000000000000000000000000000000000000000000000000000815260040161010a90610293565b60405180910390fd5b806000806101000a81548173ffffffffffffffffffffffffffffffffffffffff021916908373ffffffffffffffffffffffffffffffffffffffff16021790555050565b600073ffffffffffffffffffffffffffffffffffffffff82169050919050565b600061018182610156565b9050919050565b61019181610176565b82525050565b60006020820190506101ac6000830184610188565b92915050565b600080fd5b6101c081610176565b81146101cb57600080fd5b50565b6000813590506101dd816101b7565b92915050565b6000602082840312156101f9576101f86101b2565b5b6000610207848285016101ce565b91505092915050565b600082825260208201905092915050565b7f4f6e6c7920746865206f776e6572206f662074686520636f6e7472616374206360008201527f616e2063616c6c20746869732066756e6374696f6e0000000000000000000000602082015250565b600061027d603583610210565b915061028882610221565b604082019050919050565b600060208201905081810360008301526102ac81610270565b905091905056fea2646970667358221220b48f0338e47d785ee60e5be2efdfe8528054558229320015058ebd400cb1368064736f6c634300080a0033",
  "immutableReferences": {},
  "source": "// SPDX-License-Identifier: MIT\npragma solidity >=0.4.22 <0.9.0;\n\ncontract Owned {\n    address payable private owner;\n\n    constructor() {\n        owner = payable(msg.sender);\n    }\n\n    modifier onlyOwner {\n        require(\n             msg.sender == getOwner(),\n            \"Only the owner of the contract can call this function\"\n        );\n        _;\n    }\n\n    function transferOwnership(address newOwner) external onlyOwner {\n        owner = payable(newOwner);\n    }\n\n    function getOwner() public view returns(address) {\n      return owner;\n    }\n}\n",
  "sourcePath": "/Users/lucaloforte/Documents/Development/Dapp/Projects/marketplace-eth/contracts/Owned.sol",
  "compiler": {
    "name": "solc",
    "version": "0.8.10+commit.fc410830.Emscripten.clang"
  },
  "schemaVersion": "3.4.3",
  "updatedAt": "2022-02-22T18:22:25.796Z",
  "devdoc": {
    "kind": "dev",
    "methods": {},
    "version": 1
  },
  "userdoc": {
    "kind": "user",
    "methods": {},
    "version": 1
  }
}